:020000040800F2
:10000000002800200D070008950700089507000844
:1000100095070008950700089507000800000000F4
:10002000000000000000000000000000950700082C
:100030009507000800000000DD030008890400089F
:100040009507000895070008950700089507000820
:100050009507000895070008950700089507000810
:100060009507000895070008950700089507000800
:1000700095070008950700089507000895070008F0
:1000800095070008950700089507000895070008E0
:1000900095070008950700089507000895070008D0
:1000A00095070008950700089507000895070008C0
:1000B00095070008950700089507000895070008B0
:1000C00095070008950700089507000895070008A0
:1000D0009507000895070008950700089507000890
:1000E0009507000895070008950700089507000880
:1000F0009507000895070008950700089507000870
:10010000950700089507000895070008950700085F
:10011000950700089507000895070008950700084F
:10012000950700089507000895070008950700083F
:1001300010402DE928409FE50030D4E5000053E34E
:100140000500001A1C309FE5000053E318009F15BE
:1001500000F020130130A0E30030C4E51040BDE8FA
:100160001EFF2FE188000020000000003C0A00086C
:100170001C309FE5000053E31EFF2F0110402DE9C6
:1001800010109FE510009FE500F020E31040BDE84F
:100190001EFF2FE1000000008C0000203C0A000838
:1001A00000400FE10F0014E31C00000A0D30A0E135
:1001B000D110A0E301F021E103D0A0E101AA4DE2BA
:1001C0000A30A0E1D710A0E301F021E103D0A0E1C3
:1001D000013A43E2DB10A0E301F021E103D0A0E10A
:1001E000013A43E2D210A0E301F021E103D0A0E103
:1001F000023A43E2D310A0E301F021E103D0A0E1F1
:10020000023943E2FF30C3E3FF3CC3E3DF10A0E366
:1002100001F021E103D0A0E1C04084E304F021E13A
:1002200001A843E21EFF2FE194309FE5000053E355
:1002300080309F0503D0A0E1D8FFFFEB0010B0E3B2
:1002400001B0A0E10170A0E178009FE578209FE572
:10025000002052E0D30100EB5C309FE5000053E347
:100260000100000A0FE0A0E103F0A0E14C309FE59F
:10027000000053E30100000A0FE0A0E103F0A0E159
:100280000000B0E30010B0E30040B0E10150B0E185
:1002900038009FE5000050E30100000A30009FE5B0
:1002A00000F020E39F0100EB0400B0E10510B0E195
:1002B000830000FA8B0100EB000008000000000042
:1002C000000000000000000088000020E400002082
:1002D0000000000000000000FEE700BF08B50D4C64
:1002E0000D4D04F108062B69314643F000532B6194
:1002F000D4E900324FF47A7000F022F92B693146CC
:1003000043F400532B614FF47A70D4E9003200F0CB
:1003100017F9E8E7A40000200010014008B50D4CD3
:100320000D4D04F108062B69314643F400532B614F
:10033000D4E900324FF47A7000F002F92B693146AB
:1003400043F000532B614FF47A70D4E9003200F08F
:10035000F7F8E8E7A4000020000C0140024B5A68BF
:1003600003EB021398687047A400002000B5FFF764
:10037000F5FF80F309885DF804EB4FF0020080F38D
:1003800014887047024B5A6803EB02139860704759
:10039000A400002003210F4810B443680E4C5A1CDF
:1003A00084FB02C3A3EBE27303EB4303D31A00EB1A
:1003B000031202F1140C02D05269102A04D0013940
:1003C000EDD1416010BC704700224360CCF80020A2
:1003D000F8E700BFA400002056555555EFF30980FB
:1003E00020E9F00F00B5FFF7CDFFFFF7D3FFFFF7D0
:1003F000B5FFB0E8F00F80F309885DF804EB7047B3
:1004000030B51B4B1B4C10229C61A4F580649C6290
:10041000194C0021DC60194C4FF08075DC61184CE0
:100420001848DC626FF00204986003F1080E5A610C
:100430005A625A6319611962196303F1280CDEF8D4
:100440000420A0F10C0340F8045C40F8082CA0F153
:10045000400240F80C4C43F8041D9A42FBD1E6459B
:10046000CEF8002002D05EF8100FE8E730BD00BFE4
:10047000A400002000180020D9020008DD020008B6
:100480001D030008001000200C4B1A68596A013245
:1004900001291A6004D1196A8A4224BF10215962C5
:1004A000596B012904D1196B8A4224BF10225A6367
:1004B000034A536843F0805353607047A400002000
:1004C00000ED00E008B500F059F800F051F8FFF732
:1004D00097FF134A13499069134B40F01000906145
:1004E000486820F470004860486840F40010486094
:1004F000916941F0080191615A6822F470025A60D2
:100500005A6842F400125A60FFF730FF00F046F8D4
:100510000022064B83F8232000F00AF8FEE700BF14
:100520000010024000100140000C014000ED00E00E
:10053000024A536843F080535360704700ED00E077
:1005400010B4012401EB02120344C2E902344FF05B
:10055000010181F31088054A536843F080535360CA
:100560004FF0000181F3108810BC704700ED00E0EF
:10057000014B83F308887047000C0020064B5A6A31
:1005800042F400325A625A6A42F480325A625A6A1B
:1005900042F480225A62704700ED00E04FF0E02301
:1005A000002107220248586199611A61704700BF13
:1005B0003F19010010B400204FF41F04394A3A4B90
:1005C000116883B041F00101116051680B40536024
:1005D000136823F0847323F480331360136823F4C7
:1005E00080231360536823F4FE03536094600090EB
:1005F0000190136843F48033136003E0009BB3F56C
:10060000A06F09D0136803F400330193009B0133FA
:100610000093019B002BF1D0224B1B6813F4003395
:1006200018BF01230193019B012B06D04FF00062FC
:100630001E4B9A6003B010BC70471D4A194B1168DD
:1006400041F010011160116821F00701116011687B
:1006500041F0020111605A685A605A685A605A683B
:1006600042F480625A605A6822F47C125A605A68D6
:1006700042F4E8125A601A6842F080721A601A68EE
:100680009201FCD55968074A21F003015960596865
:1006900041F002015960536803F00C03082BFAD1B2
:1006A000C4E700BF001002400000FFF800ED00E0CA
:1006B00000200240114A536803F00C03082B09D0B4
:1006C0000F4B0E4A0F495268C2F303128A5CD340A3
:1006D0000B61704753685168C3F38343C90303F147
:1006E000020306D55268920303D4054A02FB03F3C2
:1006F000E7E7054A02FB03F3E3E700BF001002400F
:1007000000127A000400002000093D0080B586B088
:1007100000AF1B4A1B4BD31ABB601B4B7B61194BB1
:100720003B610023FB600AE07A69531C7B613B69F3
:10073000591C396112781A70FB680133FB60FA6842
:10074000BB689A42F0D3114A114BD31A7B60104B0D
:100750003B610023FB6007E03B695A1C3A610022C1
:100760001A70FB680133FB60FA687B689A42F3D326
:10077000FFF720FFFFF7A6FE00BF1837BD4680BD7C
:1007800080000020000000200C0A0008E400002087
:100790008800002080B400AFFEE700BF704700BFB4
:1007A0000120704708B500F097F8162203464FF075
:1007B000FF301A6008BD00BF08B500F08DF81623A1
:1007C0000360FEE770B5161E07DD0C468D19AFF30A
:1007D000008004F8010BA542F9D1304670BD00BF7E
:1007E00070B5161E07DD0C468D1914F8010BAFF31A
:1007F0000080A542F9D1304670BD00BF4FF0FF30F8
:10080000704700BF4FF4005300204B60704700BF9B
:1008100001207047002070470EB44FF0FF3003B046
:10082000704700BF08B500F057F80A2203464FF0A2
:10083000FF301A6008BD00BF08B500F04DF8022275
:1008400003464FF0FF301A6008BD00BF4FF0FF3085
:10085000704700BF4FF4005300204B60704700BF4B
:1008600008B500F039F81F2203464FF0FF301A6038
:1008700008BD00BF08B500F02FF80B2203464FF06B
:10088000FF301A6008BD00BF08B500F025F80C2243
:1008900003464FF0FF301A6008BD00BF0C4A08B590
:1008A0000346106828B1694603448B4208D8136098
:1008B00008BD084908461160694603448B42F6D9D1
:1008C00000F00AF80C2203464FF0FF301A6008BD12
:1008D000DC000020E400002004309FE5000093E5E8
:1008E0001EFF2FE11C00002030309FE5000053E385
:1008F00010402DE90040A0E10010A01300F02013EB
:100900001C309FE5000093E5283090E5000053E39C
:100910000FE0A01113FF2F110400A0E1A5FFFFFAC3
:1009200000000000E409000870402DE90060A0E329
:1009300060509FE560409FE5054044E04441A0E1F0
:10094000040056E10900001A2F0000EB0060A0E34C
:1009500048509FE548409FE5054044E04441A0E100
:10096000040056E10600001A7040BDE81EFF2FE1AA
:10097000043095E40FE0A0E113FF2FE1016086E26F
:10098000EEFFFFEA043095E40FE0A0E113FF2FE152
:10099000016086E2F1FFFFEA0000000000000000B5
:1009A00000000000000000000030A0E1022080E014
:1009B000020053E11EFF2F010110C3E4FBFFFFEA19
:1009C0003B3E0B3E103E253E333E033E063E143E6C
:1009D0000E3E0D3E243E123E273E023E183E093E8C
:1009E0000A3E0000200000203B3E0B3E103E253E0C
:1009F000333E033E063E143E0E3E0D3E243E123E66
:0C0A0000273E023E183E093E0A3E000060
:100A0C000DC0A0E1F8DF2DE904B04CE228D04BE298
:080A1C00F06F9DE81EFF2FE1C1
:100A24000DC0A0E1F8DF2DE904B04CE228D04BE280
:080A3400F06F9DE81EFF2FE1A9
:040A3C0000000000B6
:080A400060F7FF7F01000000D8
:100A48000000000000000000000000000102030494
:100A58000607080900A24A04E00000202000002040
:100A6800000000000000000000000000000000007E
:100A7800000000000000000000000000000000006E
:100A8800000000000000000000000000000000005E
:100A9800000000000000000000000000000000004E
:100AA800000000000000000000000000000000003E
:100AB800000000000000000000000000000000002E
:040AC80070010008B1
:040ACC0030010008ED
:040000050800070DDB
:00000001FF
