:020000040800F2
:1000000000280020210500082D0500082F05000804
:100010003105000833050008350500080000000020
:10002000000000000000000000000000370500088C
:100030003905000800000000F10100089D020008D9
:100040003F05000841050008430500084505000874
:1000500047050008490500084B0500084D05000844
:100060004F05000851050008530500085505000814
:1000700057050008590500085B0500085D050008E4
:100080005F050008610500086305000865050008B4
:1000900067050008690500086B0500086D05000884
:1000A0006F05000871050008730500087505000854
:1000B00077050008790500087B0500087D05000824
:1000C0007F050008810500088305000885050008F4
:1000D00087050008890500088B0500088D050008C4
:0C00E0008F05000891050008930500083A
:1000EC00FEE700BF08B50D4C0D4D04F108062B6959
:1000FC00314643F000532B61D4E900324FF47A704F
:10010C0000F022F92B69314643F400532B614FF474
:10011C007A70D4E9003200F017F9E8E714000020F7
:10012C000010014008B50D4C0D4D04F108062B696B
:10013C00314643F400532B61D4E900324FF47A700A
:10014C0000F002F92B69314643F000532B614FF458
:10015C007A70D4E9003200F0F7F8E8E714000020D8
:10016C00000C0140024B5A6803EB0213986870476D
:10017C001400002000B5FFF7F5FF80F309885DF847
:10018C0004EB4FF0020080F314887047024B5A685E
:10019C0003EB0213986070471400002003210F48F2
:1001AC0010B443680E4C5A1C84FB02C3A3EBE273DD
:1001BC0003EB4303D31A00EB031202F1140C02D02D
:1001CC005269102A04D00139EDD1416010BC70473E
:1001DC0000224360CCF80020F8E700BF1400002098
:1001EC0056555555EFF3098020E9F00F00B5FFF790
:1001FC00CDFFFFF7D3FFFFF7B5FFB0E8F00F80F3AB
:10020C0009885DF804EB704730B51B4B1B4C102272
:10021C009C61A4F580649C62194C0021DC60194C33
:10022C004FF08075DC61184C1848DC626FF00204EA
:10023C00986003F1080E5A615A625A631961196287
:10024C00196303F1280CDEF80420A0F10C0340F82C
:10025C00045C40F8082CA0F1400240F80C4C43F828
:10026C00041D9A42FBD1E645CEF8002002D05EF880
:10027C00100FE8E730BD00BF14000020001800206C
:10028C00ED000008F100000831010008001000200A
:10029C000C4B1A68596A013201291A6004D1196A87
:1002AC008A4224BF10215962596B012904D1196B60
:1002BC008A4224BF10225A63034A536843F0805386
:1002CC00536070471400002000ED00E008B500F00A
:1002DC0059F800F051F8FFF797FF134A134990694A
:1002EC00134B40F010009061486820F47000486097
:1002FC00486840F400104860916941F00801916130
:10030C005A6822F470025A605A6842F400125A6019
:10031C00FFF730FF00F046F80022064B83F823204D
:10032C0000F00AF8FEE700BF001002400010014088
:10033C00000C014000ED00E0024A536843F080538A
:10034C005360704700ED00E010B4012401EB021281
:10035C000344C2E902344FF0010181F31088054ACD
:10036C00536843F0805353604FF0000181F31088C1
:10037C0010BC704700ED00E0014B83F30888704718
:10038C00000C0020064B5A6A42F400325A625A6A38
:10039C0042F480325A625A6A42F480225A6270479E
:1003AC0000ED00E04FF0E0230021072202485861E5
:1003BC0099611A61704700BF3F19010010B4002009
:1003CC004FF41F04394A3A4B116883B041F00101D4
:1003DC00116051680B405360136823F0847323F44D
:1003EC0080331360136823F480231360536823F461
:1003FC00FE035360946000900190136843F48033C3
:10040C00136003E0009BB3F5A06F09D0136803F4ED
:10041C0000330193009B01330093019B002BF1D01F
:10042C00224B1B6813F4003318BF01230193019B6B
:10043C00012B06D04FF000621E4B9A6003B010BC2B
:10044C0070471D4A194B116841F010011160116879
:10045C0021F007011160116841F0020111605A6826
:10046C005A605A685A605A6842F480625A605A68F4
:10047C0022F47C125A605A6842F4E8125A601A68E4
:10048C0042F080721A601A689201FCD55968074ACA
:10049C0021F003015960596841F002015960536819
:1004AC0003F00C03082BFAD1C4E700BF0010024084
:1004BC000000FFF800ED00E000200240114A5368F4
:1004CC0003F00C03082B09D00F4B0E4A0F4952684E
:1004DC00C2F303128A5CD3400B61704753685168B6
:1004EC00C3F38343C90303F1020306D55268920395
:1004FC0003D4054A02FB03F3E7E7054A02FB03F3C7
:10050C00E3E700BF0010024000127A000000002058
:10051C0000093D00FFF752FFFFF7D8FEFEE7FEE7AC
:10052C00FDE7FCE7FBE7FAE7F9E7F8E7F7E7F6E7BB
:10053C00F5E7F4E7F3E7F2E7F1E7F0E7EFE7EEE7EB
:10054C00EDE7ECE7EBE7EAE7E9E7E8E7E7E7E6E71B
:10055C00E5E7E4E7E3E7E2E7E1E7E0E7DFE7DEE74B
:10056C00DDE7DCE7DBE7DAE7D9E7D8E7D7E7D6E77B
:10057C00D5E7D4E7D3E7D2E7D1E7D0E7CFE7CEE7AB
:08058C00CDE7CCE7CBE7CAE79D
:10059400000000000000000001020304060708092F
:0405A40000A24A0463
:0400000508000521C9
:00000001FF
