:020000040800F2
:10000000980600206D0100087501000877010008BE
:10001000790100087B0100087D0100080000000054
:100020000000000000000000000000007F01000848
:1000300081010008000000002902000815030008E3
:100040008701000887010008870100088701000870
:100050008701000887010008870100088701000860
:100060008701000887010008870100088701000850
:100070008701000887010008870100088701000840
:100080008701000887010008870100088701000830
:100090008701000887010008870100088701000820
:1000A0008701000887010008870100088701000810
:1000B0008701000887010008000000008701000890
:1000C0008701000800000000000000008701000810
:1000D0000000000087010008870100080000000000
:1000E00087010008870100088701000800F002F876
:1000F00000F02CF80AA090E8000C82448344AAF196
:100100000107DA4501D100F021F8AFF2090EBAE893
:100110000F0013F0010F18BFFB1A43F0010318473B
:100120006805000078050000002300240025002653
:10013000103A28BF78C1FBD8520728BF30C148BF4A
:100140000B6070471FB51FBD10B510BD00F031F832
:100150001146FFF7F7FF00F0B5F900F04FF803B4D0
:10016000FFF7F2FF03BC00F057F800000948804792
:1001700009480047FEE7FEE7FEE7FEE7FEE7FEE789
:10018000FEE7FEE7FEE7FEE704480549054A064BA1
:100190007047000065030008ED000008980000208B
:1001A00098060020980200209802002070477047AF
:1001B0007047754600F02CF8AE4605006946534678
:1001C00020F00700854618B020B5FFF7DDFFBDE839
:1001D00020404FF000064FF000074FF000084FF0AE
:1001E000000BAC46ACE8C009ACE8C009ACE8C009FB
:1001F000ACE8C00921F007018D46704710B50446F0
:10020000AFF300802046BDE81040FFF7A8BF000014
:10021000004870470000002001491820ABBEFEE7EF
:100220002600020070470000EFF3098020E9F00F7C
:1002300000B500F07BF900F0FDF900F0D9F8B0E866
:10024000F00F80F309885DF804EB704780B500F08B
:1002500001F880BD82B041F204000021C4F2020026
:100260000191009150F8041C41F4803140F8041CC5
:1002700050F8041C01F40031009101990131019101
:10028000009919B90199B1F5A06FF1D150F8041C8A
:10029000890354BF0021012100910099012936D121
:1002A00042F20001C4F202010A6842F010020A6040
:1002B0000A6822F007020A600A6842F002020A6035
:1002C0000168016001680160016841F480610160BA
:1002D000016821F47C110160016841F4E8110160BA
:1002E00050F8041C41F0807140F8041C50F8041CC4
:1002F0008901FBD5016821F003010160016841F02B
:1003000002010160016801F00C010829FAD102B074
:100310007047000080B540F26401C2F20001086835
:1003200040F2680E013008600021C2F2000E4FF06A
:10033000100C02E0103120290AD00EEB0103DA691B
:10034000012AF7D19A69904228BFC3F81CC0F1E78F
:100350004EF60450CEF20000016841F08051016079
:1003600080BD000080B541F20000C4F202000168C7
:10037000002241F0010101604168CFF6FF02114007
:10038000416001684FF6FF72CFF6F66211400160DE
:10039000016821F480210160416821F4FE0141607F
:1003A0004FF41F018160FFF751FF4EF60850CEF267
:1003B00000004FF00061016080BD00004EF6235048
:1003C000CEF2000000210170704700004EF624506C
:1003D000CEF20000016841F400310160016841F48F
:1003E00080310160016841F48021016070470000A4
:1003F00040F26000C2F20000006840F268010001B3
:10040000C2F2000108587047FEE7000040F60040C5
:10041000C2F2000080F30888704700004EF210001E
:1004200041F63F11CEF20000C0F20101416000210F
:10043000816007210160704770B540F2680041F2A9
:10044000000340F2094CC2F20000C2F20003C0F601
:10045000000C03F5006503F5806440F2715E002135
:10046000C0E9003C00F108031022C0F6000E40F283
:10047000C15683E8264000F11803C0F6000656C3B3
:10048000C0E90A124FF0807C6FF0020E002200BF1C
:100490001301C45800EB021344F804CC5D6844F81F
:1004A000085C342544F80CEC6619043D46F8441CFD
:1004B000FAD12C440132403C032A1C6008BF70BDB5
:1004C000E6E70000FFF782FFFFF7A0FFFFF7B4FFAA
:1004D00041F21800C4F20200016841F0100101600D
:1004E00040F60441C4F20101D1F8002422F4700264
:1004F000C1F80024D1F8002442F40012C1F800240D
:10050000026842F008020260086820F47000086087
:10051000086840F40010086000F01EF8FFF77EFF46
:10052000FFF74CFF00F00EF8FEE7000040F260011C
:10053000C2F20001096840F268020901C2F2000239
:10054000505070474EF60450CEF20000016841F062
:10055000805101607047000000B5FFF749FF80F34C
:1005600009885DF804EB4FF0020080F314887047AF
:1005700041F2100540F2600640F2640740F2680460
:10058000C4F20105C2F20006C2F20007C2F2000482
:100590002868214640F00050286032683B684FF4DC
:1005A0007A7000F035F82868214640F40050286041
:1005B00032683B684FF47A7000F02AF8E8E70000F0
:1005C00040F6104540F2600640F2640740F26804CD
:1005D000C4F20105C2F20006C2F20007C2F2000432
:1005E0002868214640F40050286032683B684FF488
:1005F0007A7000F00DF82868214640F0005028601D
:1006000032683B684FF47A7000F002F8E8E70000C7
:1006100080B5184401EB02110122C1E902024FF03A
:10062000010181F31088FFF78DFF4FF0000181F386
:10063000108880BD10B540F2600CC2F2000CDCF8EE
:10064000002045F2565340F2680E0321C5F255537F
:10065000C2F2000E02E000BF013911D0501C80FB35
:10066000032404EBD47202EB4202821AF4D00EEBA4
:10067000021050F80C4F102CEED1CCF8002000E006
:1006800060460021016010BD9806000800000020AF
:08069000980600002801000893
:04000005080000ED02
:00000001FF
